:020000040800F2
:10000000E8330020BD7600080D1000080F1000082E
:1000100013100008171000081B1000080000000053
:100020000000000000000000000000001F10000899
:1000300021100008000000006B5B00089B5C0008BA
:10004000D7760008D7760008D7760008D77600085C
:10005000D7760008D7760008D77600085D650008D7
:10006000D7760008D7760008D7760008D77600083C
:10007000D7760008D7760008D7760008D77600082C
:10008000D7760008D7760008D7760008D77600081C
:10009000D7760008D7760008D7760008D77600080C
:1000A000D7760008D7760008D7760008D7760008FC
:1000B000D7760008D7760008D7760008D7760008EC
:1000C000D7760008D7760008D7760008D7760008DC
:1000D000D77600089B760008D7760008BF64000832
:1000E000D7760008D7760008D7760008D7760008BC
:1000F000D7760008D7760008D7760008D7760008AC
:10010000D7760008D7760008D7760008D77600089B
:10011000D7760008D7760008D7760008D77600088B
:10012000D7760008D7760008D7760008D77600087B
:10013000DFF80CD007F000FC004800475F0D000816
:10014000E833002000B9704700BF00BF00BF00BF08
:1001500000BF00BF00BF00BF00BF00BF00BF00BFA7
:1001600000BF00BF00BF00BF00BF00BF00BF00BF97
:1001700000BF00BF00BF00BF00BF00BF00BF00BF87
:1001800000BF00BF00BF00BF00BF00BF00BF00BF77
:1001900000BF00BF00BF00BF00BF00BF00BF00BF67
:1001A00000BF00BF00BF00BF00BF00BF00BF00BF57
:1001B00000BF00BF00BF00BF00BF00BF00BF00BF47
:1001C00000BF00BF00BF01460139084600D0BCE7B0
:1001D00000BFB8E703E040F6C41005F001F8FAE705
:1001E00070B5F348007800284FD0022006F085FC57
:1001F0004021F04801F029FC4FF40041EE4801F0A5
:1002000024FC4FF40041EC4801F01DFC4FF4004188
:10021000E94801F01AFC4021E64801F014FC4FF4D3
:100220000041E54801F00FFC002428E0002622E010
:100230004FF40041E04801F008FCE0488068C5B296
:100240004FF40041DC4801F0FEFB4FF6FF7000EA7E
:1002500005254FF40041D84801F0F7FBD7488068E6
:10026000C0B205434FF40041D34801F0ECFBD44841
:100270000580701C86B2082EDADB601C84B2B4F5EF
:10028000165FD3DB0120CA49087070BD08B5A9E22A
:10029000CC480068401C002823D1CB4800680128C6
:1002A0000AD000204FF4A073F0221421009006F031
:1002B00093FC0120C449086047F6FF73C3A28C2158
:1002C000002006F063FD47F6FF73CBA296210020C5
:1002D00006F05CFD47F6FF73BCA2A021002006F0EB
:1002E00055FDB848006800284ED1CE480068012866
:1002F00009D106F002FC0020CA490860CAA2062102
:10030000402005F0D3FEB048006801280AD0002044
:100310004FF4A073F0221421009006F05DFC012040
:10032000A949086047F6FF73C0A20021084606F0FD
:100330002DFD47F6FF73C8A21421002006F026FD0C
:1003400047F6FF73A1A21E21002006F01FFD47F60D
:10035000FF73CCA23221002006F018FD47F6FF7390
:10036000CCA24621002006F011FD47F6FF73CDA276
:100370005A21002006F00AFD47F6FF73CDA26E2138
:10038000002006F003FD2DE28E480068012834D1DC
:100390008D48006801280AD000204FF4A073F02295
:1003A0001421009006F018FC01208749086047F6E8
:1003B000FF739EA20021084606F0E8FC47F6FF7393
:1003C000C0A21421002006F0E1FC47F6FF737FA2D3
:1003D0001E21002006F0DAFC47F6FF73C4A2462176
:1003E000002006F0D3FC4FF6E073C548B0F90020BA
:1003F0005A21642006F0CAFCF4E172480068022821
:100400006FD17148006801280AD000204FF4A07312
:10041000F0221421009006F0DFFB01206A490860F9
:10042000B84807F06BFAB849086047F6FF737FA237
:100430000021084606F0AAFC47F6FF73B3A2142178
:10044000002006F0A3FC47F6FF7360A21E210020E7
:1004500006F09CFC47F6FF73B7A23221002006F09D
:1004600095FC47F6FF73BFA2AA21002006F08EFC80
:1004700047F6FF73C6A24FF49671002006F086FC83
:100480000020C94908700CE09E48C7490978405CC3
:10049000C649C54A12788854C3480078401CC249EE
:1004A0000870C1480078984909688842ECDB4FF62B
:1004B000E073BE4A4621002006F068FC04213D4856
:1004C00001F0A7FA002897D10A2000F01DFD0421B1
:1004D000384801F09EFA00288ED1B54806F0A6F8FB
:1004E0001BE024E08748B3A1098801800020AE49C1
:1004F000087009E02020AD49AB4A12788854AA4818
:100500000078401CA8490870A74800787E4909680F
:100510008842EFDB00207C4908600421254801F077
:1005200078FA0028DED0A24806F096F85AE125486D
:10053000006803281ED12448006801280AD0002042
:100540004FF4A073F0221421009006F045FB012027
:100550001D490860FFF744FE0120324908602FA2C0
:100560000621402005F0A2FD93A20621402005F0BF
:100570009DFD37E113480068042818D1124800682F
:1005800001280AD000204FF4A073F022142100901B
:1005900006F022FB01200C49086047F6FF7323A2F6
:1005A0000021084606F0F2FB47F6FF7306E119E169
:1005B000430F002000180140001C014000100140C2
:1005C0000008006C00000020040000202D2D2D2DBF
:1005D0002D2D2D2D2D2D2D2D2D2D2D2D2D2D2D2D4B
:1005E0002D2D2D2D2D2D2D2D2D2D2D2D2D2D2D2D3B
:1005F0002D2D2D2D00000000202020202020202047
:100600002020202020544F55434820544F20454E51
:10061000544552202020202020202020202020204F
:1006200000000000080000204F6666002057656C3F
:10063000636F6D65212047455252592053595354D9
:10064000454D2075432F4F532D4949204261736515
:10065000644F532000000000202020202020202074
:10066000202020202020202020204D454E552020D5
:10067000202020202020202020202020202020207A
:1006800000000000312E53454E534F522044415438
:1006900041000000322E44415441205452414E53F7
:1006A00046455200332E4F50454E2043414D455252
:1006B00041000000342E4E4554574F524B204441C8
:1006C0005441000020202020202020202020202015
:1006D000202053454E534F52204441544120202066
:1006E000202020202020202020202020000000008A
:1006F00020204D5055363035302058595A3A000098
:10070000160000205C1B00200C0000202020202070
:1007100020202020202020202044415441205452D9
:10072000414E5346455220202020202020202020CA
:100730002020202000000000524543454956452016
:100740004C4F473A2D2D2D2D2D2D2D2D2D2D2D2D71
:100750002D2D2D2D2D2D2D2D2D2D2D2D2D2D2D2DC9
:100760000000000053454E44494E46204C4F473A46
:100770002D2D2D2D2D2D2D2D2D2D2D2D2D2D2D2DA9
:100780002D2D2D2D2D2D2D2D2D2D2D2D000000004D
:10079000505245535320533120544F20434C454130
:1007A00052204C4F47000000100000201100002094
:1007B00040000100200000004F6E0000F3A2142151
:1007C000002006F0E3FA47F6FF73AFF200221E2185
:1007D000002006F0DBFA47F6FF73F7A23221002073
:1007E00006F0D4FA54E501B500BF0098411E00910F
:1007F0000028FAD108BD0EB5002600240C253020B3
:100800008DF808008DF804008DF800007FE0761C5C
:100810003C2E01D10026641C3C2C02D10026002471
:100820006D1C182D02D10026002400250A2E09DA9D
:1008300030208DF808003246E8A10DF1090007F0DC
:10084000C9F804E03246E5A102A807F0C3F80A2C73
:1008500009DA30208DF804002246E0A10DF10500F0
:1008600007F0B8F804E02246DCA101A807F0B2F8CE
:100870000A2D09DA30208DF800002A46D7A10DF1A3
:10088000010007F0A7F804E02A46D4A1684607F063
:10089000A1F8D3A20221012005F008FC6A4602213A
:1008A000302005F003FC01AA0221482005F0FEFBE0
:1008B00002AA0221602005F0F9FB4FF6EF70FFF766
:1008C00092FFCB4805F0B2FE4FF6EF70FFF78BFFBB
:1008D000C74805F0C1FEC7A006F0D4FE202006F0F0
:1008E000C3FE684606F0CEFE202006F0BDFE01A83D
:1008F00006F0C8FE202006F0B7FE02A806F0C2FEF1
:100900002D2006F0B1FE4FF4617004F069FC7EE723
:10091000BCA20421012005F0C9FBBEA206210120D2
:1009200005F0C4FB3FE0322004F05AFCBCA005F007
:10093000AEFDD0B1BCA20421012005F0B7FB00221E
:1009400040F22551BC4801F052FDBC4805F06EFE56
:10095000BBA1BD4806F0B4FF05F0A4FD012240F2A2
:100960002551B54801F043FD1DE0B8A005F08FFD0D
:10097000C8B1ADA20421012005F098FB002240F28D
:100980002551AD4801F033FDAC4805F065FEB1A13D
:10099000AD4806F095FF05F085FD012240F2255196
:1009A000A54801F024FDBEE708B50121402001F073
:1009B00059FA3E20ADF8000048208DF80300694642
:1009C000A74800F093FFA7A20021012005F06EFBCD
:1009D000DBE00421A24801F01CF818BBA548006820
:1009E00000BB0A2000F090FA04219D4801F011F8A4
:1009F000C0B9A14805F01AFE01209E4908600020F8
:100A00009E49086002E001209A4908600421944848
:100A100000F0FFFF0028F6D0974805F01DFE0120EA
:100A20009449086008218E4800F0F3FF18BB9148F4
:100A3000006800BB0A2000F067FA0821884800F02F
:100A4000E8FFC0B98C4805F0F1FD02208949086033
:100A500000208A49086002E00220864908600821D7
:100A60007F4800F0D6FF0028F6D0834805F0F4FD5B
:100A70000220804908601021794800F0CAFF18BBA5
:100A80007C48006800BB0A2000F03EFA1021744840
:100A900000F0BFFFC0B9784805F0C8FD03207549D4
:100AA000086000207549086002E003207149086071
:100AB00010216B4800F0ADFF0028F6D06E4805F01D
:100AC000CBFD03206B4908602021654800F0A1FFA1
:100AD00018BB6848006800BB0A2000F015FA202106
:100AE0005F4800F096FFC0B9634805F09FFD042001
:100AF0006049086000206149086002E004205D4907
:100B000008602021564800F084FF0028F6D05A489B
:100B100005F0A2FD0420574908600221504800F06A
:100B200078FF78B30A2000F0EFF902214C4800F07A
:100B300070FF38B30020514908604F4805F076FD3A
:100B400000204C4908600CE000204A4908602DA2B2
:100B50000421012005F0AAFA4FF48051484800F022
:100B600072FF02213E4800F054FF0028ECD14FF400
:100B70008051434800F069FF00203E4908603E482C
:100B800005F06AFD322004F02BFB22E72020202014
:100B9000202020202020202020204E4554574F5236
:100BA0004B20444154412020202020202020202080
:100BB000202020200000000053544154494F4E2B68
:100BC0004150204D4F44453A3139322E3136382E7E
:100BD000342E313A353030300000000025640000FA
:100BE00054696D653A2020203A20203A20200000E8
:100BF0000002040053797374656D2052756E6E693E
:100C00006E670000576946693A204F6E2020202009
:100C100000000000436D616572613A204F66660016
:100C20004C45444F4E000000576946693A204F6ECC
:100C30002020522000000000004800400001030076
:100C40004C45444F4E2F2F005C1B00204C45444F19
:100C5000464600004C45444F46462F2F00000000FA
:100C60000018014075434F532D49492052554E4EAF
:100C7000494E470000000020400001000400002011
:100C8000001C014008B50121802001F0EBF84FF471
:100C90008050ADF8000010208DF8030003208DF87F
:100CA000020069469D4800F021FE4FF480519B48A8
:100CB00000F0C9FE08BD30B585B0684601F065F8A2
:100CC0004FF47A720198B0FBF2F1481EB0F1807FC8
:100CD00000D31BE0481E4FF0E022506150170F2256
:100CE000002804DB13071C0E8D4B1C5406E0130771
:100CF0001D0E8C4B00F00F04241F1D5500BF00205B
:100D00004FF0E02290610720106100BFFFF7BAFFAB
:100D10004FF48051814800F098FE04F0CFFF072384
:100D2000814A0021814803F0E8FE0823804A00211F
:100D3000804803F0E2FE09237F4A00217F4803F048
:100D4000DCFE0A237E4A00217E4803F0D6FE0623FD
:100D50007D4A00217D4803F0D0FE05B030BD38B596
:100D6000642000F0D1F805F09FF805F0FFF805F0D9
:100D700046FA05F0B8FE06F00BFC642000F0C4F85B
:100D8000FF2005F03DF94FF47A7000F0BDF8002027
:100D900005F036F96EA20021012005F087F905F073
:100DA000D3FA05F001FB05F00BFC642000F0ACF871
:100DB00006E06BA006F0FEFD4FF4FA7000F0A4F818
:100DC00069A005F064FB0028F3D005F06BFBAFF2DF
:100DD000CC120421012005F069F90BE063A006F0B4
:100DE000E9FD66A20221012005F060F94FF4FA70D6
:100DF00000F08AF85CA005F04AFB044662A005F00A
:100E000046FB0443002CE9D057A005F040FB58B145
:100E100060A006F0CFFD62A20221012005F046F994
:100E20004FF4FA7000F070F805F03CFB0BE05EA0A8
:100E300006F0C0FD60A20221012005F037F94FF451
:100E4000FA7000F061F848A005F021FB0028EED010
:100E500005F028FB0BE05BA006F0ACFD5FA20221D1
:100E6000012005F023F94FF4FA7000F04DF83EA090
:100E700005F00DFB0028EED005F014FB0BE05BA0A5
:100E800006F098FD5CA20221012005F00FF94FF455
:100E9000FA7000F039F834A005F0F9FA0028EED025
:100EA00005F000FB574805F0D7FB002005F0A8F837
:100EB00000204FF4A073F0221421009005F08CFE66
:100EC00002E0142000F020F806F008F80028F8D11D
:100ED000142000F019F805F01BFB4FF4A073F0226A
:100EE000B0210C2006F078F94FF48071464800F0EC
:100EF000ACFD052000F008F801F070FFFFF7DBFE05
:100F000002F057F8002038BD10B504464FF47A714E
:100F100004FB01F0FFF716F910BD0000001C0140B2
:100F200000E400E018ED00E058110020A9090008D5
:100F3000581300201109000858170020F70700086F
:100F4000581500208D020008581B0020D50100080C
:100F500075434F532D4949204C4F4144494E47005A
:100F600041540D0A000000004F4B000041542B4338
:100F7000574D4F44453D330D0A00000041542B436B
:100F8000574D4F44453D33006E6F206368616E6777
:100F90006500000041542B5253540D0A000000001C
:100FA00041542B525354000041542B4349504D554A
:100FB000583D310D0A00000041542B4349504D5516
:100FC000583D310041542B434950534552564552E8
:100FD0003D312C353030300D0A00000041542B5388
:100FE00045525645523530303000000041542B43B5
:100FF000494653520D0A000041542B43494653526F
:10100000000000000001030000200140704700BF05
:10101000FEE700BFFEE700BFFEE700BFFEE7704748
:10102000704770477047000031490143314A1160F1
:10103000704770B5002100230F22C47804B32D4CF3
:10104000246804F4E064C4F5E064210AC1F10403F7
:10105000CA40447804FA03F184781440214309011A
:10106000254C0678A155047804F01F050124AC40F6
:1010700005786D11AD0005F1E025C5F8004109E0E6
:10108000047804F01F050124AC401C4D067876114D
:1010900045F8264070BD1A4A0A400243154B1B1FF3
:1010A0001A60704739B1134A121D12680243114B7E
:1010B0001B1D1A6006E00F4A121D126882430D4B79
:1010C0001B1D1A607047042808D14FF0E021096900
:1010D00041F004014FF0E022116107E04FF0E02100
:1010E000096921F004014FF0E0221161704700000E
:1010F0000000FA050CED00E000E400E080E100E013
:1011000080FFFF1F002044490860091D0860091D79
:101110000860091D086041483F4914310860704764
:1011200000213D498279002A3AD00A4612680368B4
:101130009A430B461A600A1D126803689A430B1DF6
:101140001A60027911440A6803681A430A60324A35
:101150000832126803689A432F4B08331A601A1D2D
:10116000126803689A432C4B0C331A604279102A98
:101170000ED11A1F126803681A43274B08331A60EE
:101180001A1D126803681A43234B0C331A600DE0D2
:101190002149427911440A6803681A430A6005E04C
:1011A000027911440A6803689A430A607047002173
:1011B000016001710C214171002181717047164954
:1011C000103109680143144A10321160704701461A
:1011D0000020114A143212680A400AB1012000E0CE
:1011E000002070470C491431086070470146002008
:1011F0000022094B1B6803EA0102074B14331B68EA
:101200000B4013B10AB1012000E0002070470249F1
:10121000143108607047000000040140FFFF0F0018
:1012200030B943F2DB028100A1F1C0410A6005E060
:1012300043F2D2028100A1F1C0410A606FF0704216
:10124000411C8900A1F1C0410A608100A1F1C041A7
:10125000C1F80421704710280AD118214FF020420C
:101260001166402151664FF0FC319166D16610E065
:101270001821F74A116040214FF02042C2F8841033
:101280004FF0FC31F24A083211604FF02042C2F8B0
:101290008C1070471820EE492031086000200906A4
:1012A000C1F8A4004FF0FC30E94928310860091D5D
:1012B0000860091D08607047D0E901121143C26837
:1012C0001143026911434269114382691143C269A2
:1012D0001143026A1143426A1143826A1143C26A8E
:1012E0001143026B114302689200A2F1C0421160E7
:1012F000816808290BD101688900A1F1C041096802
:1013000041F0400201688900A1F1C0410A60416BCF
:101310000968426B526841EA0211426B926841EAE5
:101320000221426B928941EA0241426B128A41EAF0
:101330000251426B127D41EA0261426B9269114394
:101340000268521C9200A2F1C0421160C16AB1F55C
:10135000804F1BD1816B0968826B526841EA021190
:10136000826B926841EA0221826B128A41EA025141
:10137000826B127D41EA0261826B926911430268BD
:101380009200A2F1C042C2F8041107E06FF070426F
:1013900001688900A1F1C041C1F80421704730B54E
:1013A000002100220023446844F0080485682C438F
:1013B000C5682C4305692C43456944EA4524856981
:1013C00044EA4531C4692468C5696D6844EA052466
:1013D000C5692D8944EA0544C5692D7B44EA056247
:1013E000046A2468056A6D6844EA0524056A2D8943
:1013F00044EA0544056A2D7B44EA05630468102C21
:1014000005D14FF020442166A266E36608E0904CC7
:1014100021604FF02044C4F888208D4C0C342360A8
:1014200030BD016841F01001426841EA4221826802
:1014300041EA4231864A20321160C1680968C268B7
:10144000526841EA0221C268128941EA0241C26837
:10145000127B41EA02617E4A283211600169096803
:101460000269526841EA02210269128941EA024195
:101470000269127B41EA0261754A2C3211604169AE
:1014800009684269526841EA02214269128941EAC7
:1014900002414269127B41EA02614FF02042C2F8E8
:1014A000B01070470021016002214160002181607D
:1014B000C160016141618161C16101624FF480518C
:1014C0004162490081620021C16201630F21426BC8
:1014D0001160426B5160FF21426B91600F21426BA2
:1014E000D160426B1161426B51610021426B91618D
:1014F0000F21826B1160826B5160FF21826B9160C2
:101500000F21826BD160826B1161826B516100216E
:10151000826B916170471021016000214160816000
:10152000C160016141618161FC21C2691160C269D0
:101530005160C2699160C269D160026A1160026A39
:101540005160026A9160026AD160704700210160B7
:1015500041608160FC21C2681160C2685160C2684C
:101560009160C268D16002691160026951600269CC
:1015700091600269D16042691160426951604269BB
:1015800091604269D160704751B18200A2F1C042BE
:10159000126842F001038200A2F1C042136009E028
:1015A0008200A2F1C04212682A4B1A408300A3F1C4
:1015B000C0431A60704799B1102808D14FF02042FB
:1015C000126E42F004024FF020431A661DE0204ADA
:1015D000126842F004024FF02043C3F8802014E068
:1015E000102809D14FF02042126E1A4BDB1E1A4010
:1015F0004FF020431A6608E0154A1268154BDB1EAF
:101600001A404FF02043C3F88020704748B110497A
:101610002031096841F004014FF02042C2F8A010C7
:1016200009E00B49203109680A4AD21E11404FF0E7
:101630002042C2F8A0107047B9B110280CD14FF069
:101640002042126E42F040024FF020431A661FE023
:10165000800000A0FEFF0F00724A126842F04002B4
:101660004FF02043C3F8802012E0102808D14FF03B
:101670002042126E6C4B1A404FF020431A6607E06E
:10168000684A1268684B1A404FF02043C3F8802024
:10169000704701460020102903D14FF02042506FBF
:1016A00002E0604A14321068704710B5F2B1102899
:1016B00007D14FF020435B6E0B434FF0204463662D
:1016C00032E0B0F5807F08D1564B1B1D1B680B43E1
:1016D0004FF02044C4F8843026E0524B24331B687A
:1016E0000B434FF02044C4F8A4301DE0102807D16C
:1016F0004FF020435B6E8B434FF02044636613E052
:10170000B0F5807F08D1474B1B1D1B688B434FF002
:101710002044C4F8843007E0424B24331B688B43D9
:101720004FF02044C4F8A43010BD10B5024600208C
:101730000023102A03D14FF02044636E09E0B2F574
:10174000807F03D1374C241D236802E0354C2434BC
:10175000236803EA01040CB1012000E0002010BD61
:10176000102807D14FF02042526E8A434FF0204399
:101770005A6613E0B0F5807F08D12A4A121D12681C
:101780008A434FF02043C3F8842007E0254A2432DF
:1017900012688A434FF02043C3F8A420704770B505
:1017A00002460020002300240025102A03D14FF018
:1017B0002046736E09E0B2F5807F03D1194E361DC5
:1017C000336802E0174E2436336803EA010403EA63
:1017D000D10514B10DB1012000E0002070BD10282A
:1017E00008D14FF02042526E22EAD1024FF020433E
:1017F0005A6615E0B0F5807F09D10A4A121D1268B9
:1018000022EAD1024FF02043C3F8842008E0054AC1
:101810002432126822EAD1024FF02043C3F8A420F8
:1018200070470000800000A0BFFF0F0010B5044605
:10183000CC48844208D10121042000F02DFB002176
:10184000042000F029FB46E0C748844208D101216A
:10185000082000F021FB0021082000F01DFB3AE0E9
:10186000C248844208D10121102000F015FB00215C
:10187000102000F011FB2EE0BD48844208D1012168
:10188000202000F009FB0021202000F005FB22E0D1
:10189000B848844208D10121402000F0FDFA00211F
:1018A000402000F0F9FA16E0B348844208D1012143
:1018B000802000F0F1FA0021802000F0EDFA0AE02B
:1018C000AE48844207D10121801500F0E5FA0021DD
:1018D000A01500F0E1FA10BD10B50121084600F096
:1018E000DBFA0021012000F0D7FA10BD2DE9F0410C
:1018F000024600250026002000230024002791F83E
:1019000003C00CF00F0591F803C00CF0100CBCF1F3
:10191000000F03D091F802C04CEA050591F800C011
:10192000BCF1000F31D0146800202BE04FF0010C07
:101930000CFA00F3B1F800C00CEA03069E4220D175
:1019400083004FF00F0C0CFA03F7BC4305FA03FCBD
:101950004CEA040491F803C0BCF1280F06D14FF003
:10196000010C0CFA00FCC2F814C00AE091F803C0A4
:10197000BCF1480F05D14FF0010C0CFA00FCC2F885
:1019800010C0401C0828D1D31460B1F800C0BCF1CD
:10199000FF0F34DD546800202EE000F1080C4FF0FA
:1019A000010808FA0CF3B1F800C00CEA03069E42E5
:1019B00021D183004FF00F0C0CFA03F7BC4305FA5A
:1019C00003FC4CEA040491F803C0BCF1280F05D1D4
:1019D00000F1080C08FA0CF8C2F8148091F803C062
:1019E000BCF1480F07D100F1080C4FF0010808FACC
:1019F0000CF8C2F81080401C0828CED35460BDE813
:101A0000F0814FF6FF710180022181700421C170C5
:101A100070470246002093680B400BB1012000E0A4
:101A2000002070470146886880B270470246002057
:101A3000D3680B400BB1012000E000207047014645
:101A4000C86880B2704701617047416170470AB150
:101A5000016100E041617047C16070474FF480321E
:101A60000A438261816182618269826970470246AC
:101A70000020434B18684FF68073184040EA02106C
:101A800008433F4B186070473E49C8617047F0B546
:101A90000A46002300240021002500F00046B6F18C
:101AA000004F02D1364EF16901E0354E7168C0F346
:101AB000034583B200F44016B6F5401F08D121F06B
:101AC00070612F4E766826F070662D4F7E6012E0B2
:101AD00000F48016B6F5801F06D1032606FA05F439
:101AE000A14341F0706106E0460D360103FA06F6A7
:101AF000B14341F0706122B1460D360103FA06F69A
:101B0000314300F00046B6F1004F02D11C4EF161A6
:101B100001E01B4E7160F0BD30B500228B071C0F39
:101B20000F2303FA04F2164B08338C1053F82430B9
:101B30009343134C08348D1044F8253023468C1001
:101B400053F824308C07240F00FA04F423430C4C80
:101B500008348D1044F8253030BD0A49DC31086066
:101B60007047000000080140000C014000100140D7
:101B70000014014000180140001C014000200140F9
:101B80000000014000002042DF48006840F00100F2
:101B9000DD49086008464068DC490840DA49486089
:101BA00008460068DA490840D749086008460068D6
:101BB00020F4802008600846406820F4FE00486059
:101BC0004FF41F0088607047CF49096821F48031C5
:101BD000CD4A11601146096821F480211160B0F5E9
:101BE000803F03D0B0F5802F0ED106E0C6490968CA
:101BF00041F48031C44A116007E0C349096841F4E7
:101C0000A021C14A116000E000BF00BF704710B5BD
:101C100001460022002300204A11012A02D1BA4CB9
:101C2000236806E0022A02D1B74C236A01E0B64CD1
:101C3000636A01F01F02012494401C400CB1012092
:101C400000E0002010BD38B50020009000240025E1
:101C500000BF3120FFF7DBFF05460098401C0090D5
:101C60000098B0F5A06F01D0002DF2D03120FFF721
:101C7000CEFF08B1012400E00024204638BD014613
:101C80000020A14A106820F0F80040EAC10010606E
:101C90007047A04908607047024600209A4B586878
:101CA00020F47C1042EA01031843974B58607047B8
:101CB00098490866704701460020934A506820F012
:101CC00003000843506070478F48406800F00C00E4
:101CD0007047014600208C4A506820F0F00008430D
:101CE0005060704701460020874A506820F4E06049
:101CF00008435060704701460020834A506820F432
:101D0000605040EAC1005060704729B17E4A527A63
:101D100002437D4B5A7204E07B4A527A82437A4BEB
:101D20005A7270477B49D8310860704701460020DD
:101D3000754A506820F440400843506070470021C5
:101D4000714A20321170704A82F82010012802D0A6
:101D500004280AD104E001216B4A2032117005E009
:101D60000521694A2032117000E000BF00BF7047B2
:101D70006949086070476449096A0143624A11620F
:101D80007047654944390860704730B5002100222A
:101D9000002400235C4D6D6805F00C0121B104297D
:101DA00005D0082923D105E05C4D056022E05B4D9C
:101DB00005601FE0544D6D6805F47012524D6D685A
:101DC00005F48034022505EB92421CB9544D55436D
:101DD00005600BE04C4D6D6805F400351DB1504DAC
:101DE0005543056002E04D4D5543056002E04B4D03
:101DF000056000BF00BF444D6D6805F0F0010909A2
:101E0000484D6B5C0568DD4045603F4D6D6805F4ED
:101E1000E061090A434D6B5C4568DD4085603A4DE1
:101E20006D6805F46051C90A3E4D6B5C4568DD4044
:101E3000C560354D6D6805F44041890B3A4D6B5CCA
:101E4000C568B5FBF3F5056130BD29B12E4A52696D
:101E500002432D4B5A6104E02B4A526982432A4BBC
:101E60005A61704729B1284A92690243264B9A6108
:101E700004E0254A92698243234B9A61704729B155
:101E8000214AD2690243204BDA6104E01E4AD2693A
:101E900082431D4BDA61704729B11B4AD268024365
:101EA000194BDA6004E0184AD2688243164BDA60B4
:101EB000704729B1144A12690243134B1A6104E0B6
:101EC000114A12698243104B1A6170471249403916
:101ED000086070470F49C86470470B49C871704764
:101EE0000948406A40F080700749486270470146DF
:101EF0000020054A92680A400AB1012000E0002053
:101F00007047014988727047001002400000FFF8D6
:101F1000FFFFF6FE000042428004424200127A00B7
:101F200000093D00400000205000002010B504468C
:101F3000BE48844208D101218014FFF7ADFF002183
:101F4000A014FFF7A9FF16E0B948844208D1012187
:101F50000014FFF7AEFF00212014FFF7AAFF0AE0EC
:101F6000B448844207D10121C013FFF7A2FF00212A
:101F7000E013FFF79EFF10BD10B50022028802F4A7
:101F800041520B884C8823438C882343CC882343BD
:101F90000C8923434C8923438C892343CC892343D5
:101FA0001A430280838B4FF2FF74234083830B8A92
:101FB000038210BD2DE9F04F85B005460C464FF069
:101FC000000902274FF000084FF0010B0026B2462F
:101FD000A88B4FF240010840A88302202884B5F85E
:101FE0001C90A068022801D100BF38E0A08810B979
:101FF0004FF0010B01E04FF0020B8D48854200D1FC
:1020000000E000BF6846FFF7C0FEDDF800A0E088F2
:10201000B0F5007F0AD14FEA1A2000EB80004000A3
:10202000A168B0FBF1F0401D86B20BE04FEA4B1007
:10203000BAFBF0F000EB80004000A168B0FBF1F0CB
:10204000401D86B20A20B6FBF0F606F00108A6EBAA
:102050000800C0F34F074FF6FF7000EA0828022F70
:1020600001DBFF2F02DD02274FF00008E08840EA85
:10207000080038432884A088A18908436188084360
:102080002188084340F4006040EA0909A5F81C9043
:1020900005B0BDE8F08F0021018041808180C180C2
:1020A000018141818181C181072101827047002125
:1020B000018041808180C180022181600021818175
:1020C000704721B1028842F04002028004E0028899
:1020D0004FF6BF731A400280704721B1828B42F4E1
:1020E0008062828304E0828B4FF6FF331A40828342
:1020F000704730B5002400230C110125A540ABB278
:102100001AB185881D43858002E085889D438580BE
:1021100030BD1AB183880B43838002E083888B43F0
:1021200083807047818170470146888970474FF6E8
:10213000FF62914204D0028842F48072028004E07F
:1021400002884FF6FF631A400280704721B18288EF
:1021500042F00402828004E082884FF6FB731A404A
:102160008280704702884FF2FF731A400280028813
:102170000A4302807047018841F480510180704712
:1021800021B1028842F40052028004E002884DF638
:10219000FF731A400280704702460020012901D0D7
:1021A000108B00E0908A70470146088A7047B1F5AD
:1021B000804F04D1028842F48042028004E0028809
:1021C0004BF6FF731A4002807047024600201389C5
:1021D0000B400BB1012000E000207047CA43028190
:1021E0007047F0B50246002000240023002501F0CE
:1021F0000F070126BE40B4B20B1101269E40B3B2B8
:10220000968806EA03051689264016B10DB101200D
:1022100000E00020F0BD10B5002201F00F04012302
:10222000A3409AB2D343038110BD000000300140A7
:1022300000380040003C004010B50446FB48844292
:1022400009D101218803FFF727FE00214FF48040C8
:10225000FFF722FE32E0F648844209D1012148040A
:10226000FFF727FE00214FF40030FFF722FE25E0A4
:10227000F048844209D101218804FFF71AFE0021A9
:102280004FF48020FFF715FE18E0EB48844209D197
:102290000121C804FFF70DFE00214FF40020FFF7D5
:1022A00008FE0BE0E548844208D101210805FFF74C
:1022B00000FE00214FF48010FFF7FBFD10BD2DE95B
:1022C000F04786B005460E460024A24600BFA14650
:1022D0000027B08900B100BF2F462C8A4CF6FF7052
:1022E0000440F08804432C82AC894EF6F31004407D
:1022F000B08831890843718908430443AC81AC8AB2
:102300004FF6FF400440B0890443AC8201A8FFF7B8
:102310003CFDC648874202D1DDF810A001E0DDF89F
:102320000CA0A88900F4004040B10AEBCA0000EB01
:102330000A1031684900B0FBF1F807E00AEBCA0067
:1023400000EB0A1031688900B0FBF1F86420B8FB9B
:10235000F0F004012009642101FB1089A88900F430
:10236000004040B1322000EBC900B0FBF1F000F0BA
:102370000700044308E0322000EB09106421B0FBA1
:10238000F1F000F00F0004432C8106B0BDE8F087A7
:102390004FF41651016000218180C18001810C2120
:1023A000418100218181704710B502460020108ACA
:1023B0004FF2FF0318400B884C8823438C8823433B
:1023C000CC8823431843108210BD00210180418036
:1023D0008180C180704721B1828942F4005282819C
:1023E00004E082894DF6FF731A4082817047F0B590
:1023F0000346002400260025002040F66A17B94253
:1024000000D100BF1846C1F3421401F01F06012796
:1024100007FA06F5012C01D10C3004E0022C01D1A1
:10242000103000E014301AB107682F43076002E053
:102430000768AF430760F0BD1AB1838A0B438382FC
:1024400002E0838A8B4383827047028A4FF6F073DF
:102450001A400282028A0A430282704782894FF23E
:10246000FF731A40828182890A438281704721B1B9
:10247000828942F00202828104E082894FF6FD7374
:102480001A4082817047028A4FF6DF731A40028237
:10249000028A0A430282704721B1028A42F48042D2
:1024A000028204E0028A4BF6FF731A4002827047F0
:1024B000C1F308028280704701468888C0F3080093
:1024C0007047818941F0010181817047028BD2B24E
:1024D0000283028B42EA012202837047028B02F4DC
:1024E0007F420283028B0A430283704721B1828AB2
:1024F00042F02002828204E0828A4FF6DF731A40A3
:102500008282704721B1828A42F01002828204E006
:10251000828A4FF6EF731A408282704721B1828A15
:1025200042F00802828204E0828A4FF6F7731A4072
:102530008282704721B1828942F40042828103E0A5
:102540008289C2F30E028281704721B1828A42F4ED
:102550000062828204E0828A4FF2FF731A40828214
:102560007047828A4FF6FB731A408282828A0A433E
:102570008282704721B1828A42F00202828204E0A4
:10258000828A4FF6FD731A4082827047024600200D
:10259000B1F5007F00D100BF13880B400BB10120C3
:1025A00000E00020704701F40072B2F5007F00D116
:1025B00000BFCA430280704770B502460024002362
:1025C0000025002040F66A16B14200D100BFC1F3D9
:1025D000421501F01F03012606FA03F3012D02D173
:1025E0009689334006E0022D02D1168A334001E07D
:1025F000968A33400C12012606FA04F416883440F9
:1026000013B10CB1012000E0002070BD10B5002214
:10261000002340F66A14A14200D100BF0A1201242F
:102620009440A3B2DC43048010BD00000038014098
:102630000044004000480040004C00400050004072
:102640000246002005E011F8013B02F8013B431C63
:10265000D8B20B78002BF6D1137070472DE9F041FA
:1026600005460E461446002714B90020BDE8F08147
:102670001DB9042020700020F8E71EB90C2020703E
:102680000020F3E7FE480078002803DD11202070C9
:102690000020EBE72878012808D0022807D003287B
:1026A00002D0042804D100E000BF00BF00BF03E057
:1026B000012020700020D9E700BF03F035FA07465B
:1026C00005F10F013046FFF7BBFF8046384603F0A7
:1026D0002FFA002020704046C8E70146002002E0A3
:1026E000491C421CD0B20A78002AF9D170472DE962
:1026F000F04105460E4614464FF000080CB9BDE8FF
:10270000F08115B904202070F9E716B90C2020706B
:10271000F5E7DB480078002802DD12202070EEE7A4
:102720002878012808D0022807D0032802D00428DE
:1027300004D100E000BF00BF00BF02E00120207014
:10274000DDE700BF03F0F0F980463046FFF7C5FF34
:1027500007460F2F05DD404603F0EAF90B202070F5
:10276000CDE7314605F10F00FFF76AFF404603F061
:10277000DFF90020207000BFC1E7F0B5024612F873
:10278000344F95785678343A0B4618680FE000F1CC
:102790000B073F5DB74300F10B0C0CF80470674664
:1027A0003F5D17B9877AAF4387721B1D18680028F1
:1027B000EDD1F0BDB349B44A1278885CB349095CE5
:1027C000B04A515C01EBC001B14A1170704710B5BD
:1027D000002403F0A9F90446A9480078F0B9AD48EF
:1027E0000078D8B9FFF7E6FFA9480078AA49097828
:1027F000884213D0A948A649097850F82100A84971
:10280000086008460068806B401C09688863A5481A
:102810000068401CA349086003F09DF9204603F0BE
:1028200087F910BD70B5014600249F4D2D68EC61FD
:102830009D4C246821620B4618681BE09A4C246862
:1028400094F8345000F10B04645D974D2D6895F8B1
:1028500035502C43944D2D6895F8346000F10B05EC
:10286000AC55847A904D2D6895F836502C4384727F
:102870001B1D18680028E1D18B4C246894F8342083
:10288000824CA45C884D2D6895F83550AC437F4D43
:10289000AC542C46A45C44B9834C246894F836505C
:1028A000794C2478AC43784D2C7070BD2DE9FF4FE6
:1028B00083B081460E461546109F0020009017B940
:1028C00007B0BDE8F08FB9F1000F03D104203870D4
:1028D0000020F5E71EB9042038700020F0E71DB98C
:1028E000042038700020EBE700203060CA46DAF898
:1028F000004015E02078062807D2DFE800F0060443
:102900000503070807E006E005E000BF00BF01205F
:1029100038700020D4E700BF0AF1040ADAF800405A
:10292000002CE7D156480078002803DD02203870DB
:102930000020C5E757480078002803DD0D203870D7
:102940000020BDE703F0F0F80090002002908346DD
:102950000190CA46DAF8004068E02078062855D28F
:10296000DFE800F054182B035556208900280CDDB1
:102970002089401E208110C601200290002001C540
:102980000BF101001FFA80FB03E0019840F0010009
:10299000019046E0606858B1606801C50020606041
:1029A00010C6012002900BF101001FFA80FB03E02A
:1029B000019840F00200019033E0D4F80480B8F8A8
:1029C000160000281DDDD8F81010081DC8F81000EA
:1029D000086801C5D8F80810D8F81000884203D15B
:1029E000D8F80400C8F81000B8F81600401EA8F87F
:1029F000160010C6012002900BF101001FFA80FBA7
:102A000003E0019840F0040001900AE000BF00BF1D
:102A1000009803F08DF8002030600120387058468F
:102A20004EE700BF0AF1040ADAF80040002C94D106
:102A30000298012808D100203060009803F078F84F
:102A40000020387058463BE71748006890F830007F
:102A5000019941F0800108431349096881F8300069
:102A600000201149096881F831000F49069809686A
:102A7000C8854846FFF7D6FE009803F059F815E0E0
:102A80006D0000207A7B0008710000207200002099
:102A9000700000206E0000206F000020282200201F
:102AA00084000020540000207C000020FFF78FFEEF
:102AB00003F03AF80090FA48006890F8310020B12D
:102AC00001281BD0022818D100E000BFF44800689C
:102AD000C4693CB110C6002030600BF101001FFA40
:102AE00080FB09E00120EE49096881F83100494680
:102AF000EB480068FFF741FE06E000BF4946E848A2
:102B00000068FFF73AFE00BF00BFE548006890F894
:102B1000310020B1012828D0022825D11FE02078DB
:102B200006280DD2DFE800F00C0607030D0E00208A
:102B300001C510E000BFDA480068406A01C50AE03C
:102B400000BF00BF009802F0F3FF002030600120BA
:102B500038705846B4E600BF002038700AE0002004
:102B600001C50E20387005E000BF002001C50A2015
:102B7000387000BF00BF0020C949096881F83000E3
:102B8000C749096881F83100C5490968C861C44965
:102B900009680862C24909684862009802F0C8FFE3
:102BA00058468DE67CB5002514E06946284602F0BB
:102BB00034FA064666B9BB4850F8254044B1012CAA
:102BC00006D0D4E9020100EB810060640198A064A2
:102BD000681CC5B21F2DE8DD7CBD002402E0C820C2
:102BE00002F0FEFAB04800780028F8D0AF4800683C
:102BF0006421B0FBF1F0AD4908600846006828B9CF
:102C00000020AB490870FF2002F052FA00BF02F02A
:102C10008BFF0446A7480068A74908600020A54923
:102C20000860204602F084FFA34800689F490968B5
:102C3000B0FBF1F0C0F164009D49087002F0CEFFD6
:102C4000FFF7B0FF642002F0CBFAE0E700B587B0F1
:102C5000032000218022994BCDE90132CDE90310F8
:102C60004FF6FE701E23964A0090AFF2910001F0DD
:102C7000A0FF06AA93A11E2002F02EF907B000BD06
:102C8000002400BF02F050FF04468A480068401C40
:102C900088490860204602F04BFF02F09EFFF1E7F2
:102CA00000B587B00320002180228A4BCDE9013294
:102CB000CDE903104FF6FF701F23874A0090AFF253
:102CC0003F0001F076FF06AA84A11F2002F004F95C
:102CD00007B000BD04E0002200F8012B4A1E91B2AB
:102CE0000029F8DC704730B54FF4A0717F48FFF73A
:102CF000F1FF7E4B03F1200500240AE0002018704C
:102D00005D603F20D8730021197420332035601C8A
:102D100084B2092CF2DB0020187058603F20D87371
:102D20000021197471487249086030BD30B54FF404
:102D3000CF617048FFF7CEFF80215A48FFF7CAFFE6
:102D40006C4B03F15C0500240AE05D613F2083F8D1
:102D50004C0000214D20C1545C335C35601CC4B272
:102D6000112CF2D3002058613F2083F84C00002141
:102D70004D20C1540020604908605E485F490860EA
:102D800030BD00225E4B1A705E49002004E0002234
:102D900001F8012B421CD0B20428F8DB00225A4B68
:102DA0001A705A4B1A705A4B1A603D4B1A60704792
:102DB0000020584908605849087058490870584917
:102DC000087058490870584908603A4908603A49FB
:102DD00008603649086034490870704710B502F041
:102DE000F5FEFFF7E5FFFFF7CCFFFFF79FFFFFF7CB
:102DF0007AFF00F008FF01F04AF801F08AFBFFF7C4
:102E00004FFFFFF723FF02F011FE02F0E3FE02F096
:102E100079FF10BD43480078012808D13E4800786A
:102E2000FF2804D23C480078401C3B49087070479A
:102E300010B500243B480078012830D102F074FE20
:102E4000044635480078002804DD33480078401EE9
:102E50003149087030480078F0B930480078D8B966
:102E6000FFF7A8FC2948007827490978884213D041
:102E70000C482649097850F8210025490860084681
:102E80000068806B401C0968886327480068401C04
:102E90002549086002F064FE204602F049FE10BD9C
:102EA0007C000020282200206C000020640000200C
:102EB000600000207800002068000020281E00200C
:102EC0002420002075432F4F532D4949205374610E
:102ED00074000000282000202422002075432F4F7A
:102EE000532D49492049646C650000005C1C00209A
:102EF00058000020A8220020880000208000002028
:102F000071000020720000206F000020700000207F
:102F100084000020980000206D0000206E0000203A
:102F200077000020760000205400002010B5002417
:102F3000FD480078012811D102F0F6FD0446FB4857
:102F4000007840B9FA480078FF2804D2F8480078A1
:102F5000401CF7490870204602F0EAFD10BD10B58C
:102F60000024F1480078012822D102F0DDFD04465A
:102F7000EF480078002818DDED480078401EEC4945
:102F800008700846007860B9E848007828B92046FB
:102F900002F0CEFDFFF71BFC0AE0204602F0C8FD60
:102FA00006E0204602F0C4FD02E0204602F0C0FD2B
:102FB00010BD10B5DC48007890B9FFF7FBFBDD4889
:102FC0000078DD490870DD48DA49097850F82100B9
:102FD000DB49086008460068DA49086002F0ABFD8A
:102FE00010BD10B50024022002F0FAF802F09CFD9A
:102FF00004460020D4490860204602F099FD642070
:1030000002F0EEF802F090FD0446CF480068CF4988
:1030100008600120CE490870204602F089FD10BDED
:1030200070B5002602F02AFE02F07EFD0646C94871
:103030000068401CC7490860304602F079FDBA4874
:103040000078012853D1C448007820B1012804D069
:10305000022809D103E001250BE0002509E0012544
:103060000120BD49087004E001250020BA4908701C
:1030700000BF00BF05B970BDB848046833E002F076
:1030800053FD0646E08D50B3E08D401E80B2E085D2
:1030900028BB94F8300000F0370040B114F8300F2E
:1030A00020F03700207001206070303C02E00020EA
:1030B00084F8310094F8300000F0080078B9343416
:1030C000A078A74909780843A54908702078A54940
:1030D000085C6178084314F83419A24A50546469B2
:1030E000304602F025FD94F832001F28C7D100BFFA
:1030F000C1E74FF48F707047704710B590F83420D7
:1031000001F10B039B5C90F83540A34301F10B04E4
:10311000A35423469B5C23B98B7A90F83640A34393
:103120008B7210BD2DE9F04F05460F46904699462B
:10313000A87A8D490E5C05F10B00805D11F800B096
:103140000BEBC60000F0FF0A7C4850F82A40002034
:10315000243460812760207B20EA0800207384F8F3
:103160000D90207B243C00F0080068B994F83600EC
:103170007B49097808437A4908707A48805D94F859
:10318000351008437749885529462046FFF7B5FF93
:10319000206A20B12046216AFFF7EFFAE561504628
:1031A000BDE8F08F10B5674A1268D061654A1268B1
:1031B00092F8343000F10B02D25C624B1B6893F83A
:1031C00035301A435F4B1B6893F8344000F10B0312
:1031D0001A55827A5B4B1B6893F836301A43827219
:1031E000584A126892F834105E4A525C554B1B687C
:1031F00093F835309A435B4B5A541A46525C42B9A5
:10320000504A126892F83630554A12789A43544B15
:103210001A7010BD0023837200F10B01002204E03C
:10322000002301F8013B531CDAB2042AF8DB704793
:1032300005E011F8013B00F8013B531E9AB2002A49
:10324000F7DC70472DE9F84F05460E4617469846BD
:10325000DDE90BABDDF828900020009002F064FC63
:10326000009042480468002C5DD0183454F8040CD7
:103270003E490860009802F05BFC44F8186CA576A3
:10328000002020766076E08244F814AC44F80C9C70
:1032900044F8107C24F808BC24F8068CE077E81089
:1032A000207705F00700E076217F01208840A07795
:1032B000E17E01208840607700206060A06020618E
:1032C000E0602062A0626062E06220633F2084F8D8
:1032D0003400183C00214D200155204602F0CDFC61
:1032E000204602F078FC02F01FFC0090134840F8E2
:1032F00025401A48006860610020A06117480068F6
:1033000010B1164800688461144804603434A07811
:103310001349097808431249087020781149085C5C
:103320006178084324E032E0760000206D00002040
:103330006E000020700000206F0000202822002076
:10334000840000207C000020780000206400002021
:103350006C000020980000208C00002088000020D5
:1033600071000020720000207A7B0008800000209D
:1033700014F83419084A505408480078401C07498A
:103380000870009802F0D4FB0020BDE8F88F009888
:1033900002F0CEFB4220F8E7720000207700002008
:1033A0002DE9F05F04460F4691461E464FF0000B94
:1033B00016B90020BDE8F09F1CB96E2030700020C7
:1033C000F8E72078052803D0012030700020F1E7CD
:1033D00009F0800ABAF1000F04D029F080094FF0FB
:1033E000010801E04FF000080020307002F09CFB63
:1033F0008346B9F1000F2CD0B9F1010F3BD0B9F1E0
:10340000020F03D0B9F1030F46D111E0208900EA81
:103410000705BD4206D1B8F1010F05D12089A843A7
:10342000208101E070203070584602F081FB3AE0C4
:10343000208900EA070535B1B8F1010F05D12089CF
:10344000A843208101E070203070584602F070FBE4
:1034500029E0208927EA0005BD4206D1B8F1010F15
:1034600005D120892843208101E070203070584622
:1034700002F05EFB17E0208927EA000535B1B8F1BC
:10348000010F05D120892843208101E07020307090
:10349000584602F04DFB06E0584602F049FB002575
:1034A0006F20307000BF00BF284683E72DE9F04150
:1034B00006460D46002715B90020BDE8F081FA4800
:1034C0000078002803DD102028700020F5E702F0C6
:1034D0002BFB0746F548046894B100684068F3493F
:1034E0000860052020702681002060603F20A072C7
:1034F0000021E172384602F01BFB0020287004E036
:10350000384602F015FB722028702046D5E730B50A
:1035100001464A6808682AB9CC68606028B100256D
:10352000456002E0106000B142608B6800259D623A
:1035300030BDF0B506460F46B46800202C346080DC
:103540002780207920F020002071002060712079F0
:103550002C3C88B93434A078D54909780843D4493B
:1035600008702078D349085C6178084314F834194E
:10357000D04A5054012500E000253046FFF7C7FF30
:103580002846F0BD2DE9F0470446894615464FF020
:10359000000A15B92046BDE8F0871CB96E202870D6
:1035A0002046F8E7C0480078002803DD0F20287087
:1035B0002046F0E72078052803D001202870204617
:1035C000E9E702F0B1FA8246606808B1012700E03D
:1035D0000027B9F1000F03D0B9F1010F40D11BE072
:1035E0009FB93F20A0720021E17200202070AF48F7
:1035F0000068606000202081AC480460504602F002
:1036000097FA00202870002605E0504602F090FA54
:103610004920287026462AE0D4F8048005E00021DD
:103620004046FFF786FFD8F80080B8F1000FF6D1CA
:103630003F20A0720021E172002020709B480068AA
:1036400060600020208199480460504602F070FAC2
:10365000012F01D1FFF7BBF800202870002606E0FB
:10366000504602F065FA07202870264600BF00BFCA
:10367000304690E72DE9F04105460E4614460027F6
:1036800014B90020BDE8F0811DB96E202070002023
:10369000F8E71EB90C2020700020F3E7824800787C
:1036A000002803DD112020700020EBE702F03CFA37
:1036B00007462878052806D0384602F039FA012056
:1036C00020700020DEE705F10A013046FEF7B8FF62
:1036D0008046384602F02CFA002020704046D1E7A0
:1036E0002DE9F04105460E4614464FF000080CB98E
:1036F000BDE8F08115B96E202070F9E716B90C20ED
:103700002070F5E768480078002802DD122020705C
:10371000EEE702F009FA80462878052805D04046F1
:1037200002F006FA01202070E2E73046FEF7D5FFEE
:1037300007460F2F05DD404602F0FAF9732020708E
:10374000D6E7314605F10A00FEF77AFF404602F05F
:10375000EFF90020207000BFCAE7F0B51446059EBF
:10376000554F3F6897F8307047F02007DFF848C1A1
:10377000DCF800C08CF830700027DFF83CC1DCF8C2
:1037800000C08CF831704C4F3F68FE854A4F3F684F
:10379000B9620C828B74484F3F688F6047680F6036
:1037A00000274F60C860456805B169604160424FBD
:1037B0003F6897F834203F4FBF5CDFF8FCC0DCF86F
:1037C00000C09CF835C027EA0C07DFF8E8C00CF809
:1037D00002706746BF5C5FB9374F3F6897F836C0E5
:1037E000334F3F7827EA0C07DFF8C4C08CF800702D
:1037F000F0BD2DE9F04F89B005460F4691469A4637
:10380000129E0020029016B909B0BDE8F08F1DB9D4
:103810006E2030700020F7E723480078002803DD91
:10382000022030700020EFE724480078002803DDF4
:103830000D2030700020E7E72878052803D001200C
:1038400030700020E0E709F0800BBBF1000F04D0DE
:1038500029F080094FF0010801E04FF0000802F064
:1038600063F90290B9F1000F56D0B9F1010F76D08B
:10387000B9F1020F03D0B9F1030F6FD12CE0288901
:1038800000EA0704BC421BD1B8F1010F02D128891C
:10389000A0432881084800688485029802F048F90E
:1038A000002030702046AFE76D0000205C00002053
:1038B00071000020720000207C0000206E000020BB
:1038C0004B463A4604A92846CDF800A0FFF745FF2D
:1038D000029802F02DF96AE0288900EA07047CB119
:1038E000B8F1010F02D12889A0432881D748006888
:1038F0008485029802F01CF900203070204683E78E
:103900004B463A4604A92846CDF800A0FFF725FF0C
:10391000029802F00DF94AE0288927EA0004BC4227
:103920000FD1B8F1010F02D1288920432881C7485F
:1039300000688485029802F0FBF800203070204671
:1039400062E74B463A4604A92846CDF800A0FFF7A7
:1039500004FF029802F0ECF829E000E01FE028895B
:1039600027EA00047CB1B8F1010F02D12889204375
:103970002881B64800688485029802F0D9F80020B2
:103980003070204640E74B463A4604A92846CDF819
:1039900000A0FFF7E2FE029802F0CAF807E00298E2
:1039A00002F0C6F800246F20307020462CE700BFDC
:1039B000FEF70DFF02F0B8F80290A448006890F8F6
:1039C000310020B3A148006890F831000390002036
:1039D0009E49096881F8310004A8FFF798FD00208E
:1039E0009A49096881F83000029802F0A1F8002491
:1039F0000398012805D0022802D10E20307003E080
:103A000000BF0A20307000BF00BF2046FCE68F4890
:103A10000068848DB8F1010F1ED1B9F1000F0ED0EE
:103A2000B9F1010F0CD0B9F1020F03D0B9F1030FB6
:103A30000AD100E000BF2889A04328810BE000BF25
:103A400028892043288106E0029802F071F86F204F
:103A500030700020D8E600BF029802F069F800201C
:103A600030702046D0E670B5002502F05DF80546BE
:103A700076480068848D284602F05AF8204670BDCA
:103A80002DE9FC5F0446894692461E4600200090C0
:103A90000EB9BDE8FC9F1CB96E2030700020F8E71D
:103AA0002078052803D0012030700020F1E702F0D3
:103AB0003BF80090BAF1000F03D0BAF1010F0AD120
:103AC00004E0208920EA090020810BE0208940EAF7
:103AD0000900208106E0009802F02AF87120307079
:103AE0000020D6E700BF4FF0000B656855E0A87CCA
:103AF00040B3012838D0022802D0032844D111E075
:103B00002089298A00EA0107288AB84209D1394662
:103B10002846FFF70EFD8046B8F1010F01D14FF0A6
:103B2000010B38E02089298A00EA01074FB13946A4
:103B30002846FFF7FEFC8046B8F1010F01D14FF097
:103B4000010B28E0288A218920EA0107288AB84247
:103B500009D139462846FFF7ECFC8046B8F1010F41
:103B600001D14FF0010B16E0288A218920EA0107D4
:103B70004FB139462846FFF7DCFC8046B8F1010F0B
:103B800001D14FF0010B06E0009801F0D1FF6F204A
:103B9000307000207DE700BF2D68002DA7D1009870
:103BA00001F0C6FFBBF1010F01D1FEF710FE01F0DD
:103BB000BBFF009020890190009801F0B9FF002020
:103BC0003070019865E72DE9F04105460C46002765
:103BD00014B90020BDE8F0811DB96E2020700020CE
:103BE000F8E72878052803D0012020700020F1E7AD
:103BF00001F09AFF07462E89384601F099FF002010
:103C000020703046E6E770B58C211148FFF762F866
:103C10000F4C04F11C0600250AE0002020706660AD
:103C20003F20A0720021E1721C341C36681C85B252
:103C3000042DF2DB0020207060603F20A072002184
:103C4000E17203480349086070BD00007C00002059
:103C50009C1D00205C0000202DE9F84F06460F4611
:103C600090461C46002000900CB9BDE8F88F1EB9A4
:103C7000622020700020F8E706F0030018B16220EF
:103C800020700020F1E7022F03D25B20207000207B
:103C9000EBE7B8F1040F03D25C2020700020E4E7CA
:103CA00001F042FF00908B480568006820B1894808
:103CB0000068406887490860009801F039FF1DB925
:103CC0005A2020700020D0E7B14606EB080A4FF0DA
:103CD000000B05E0C9F800A0D146C2440BF1010B6E
:103CE000781E5845F6D80020C9F800002E606E6096
:103CF0002F61EF60C5F8088020702846B5E72DE9F0
:103D0000F04104460D46002715B90020BDE8F081BA
:103D10001CB9602028700020F8E701F005FF074675
:103D2000206960B16668306860602069401E20616B
:103D3000384601F0FDFE002028703046E6E73846A0
:103D400001F0F6FE5D2028700020DFE72DE9F0414C
:103D500005460E461446002714B90020BDE8F08140
:103D60001DB9602020700020F8E71EB90C202070DB
:103D70000020F3E758480078002803DD1120207068
:103D80000020EBE701F0D0FE074605F114013046B4
:103D9000FEF756FC8046384601F0CAFE002020702F
:103DA0004046DBE72DE9F04105460E4614464FF04C
:103DB00000080CB9BDE8F08115B960202070F9E762
:103DC00016B90C202070F5E743480078002802DD82
:103DD00012202070EEE701F0A7FE80463046FEF785
:103DE0007CFC07460F2F05DD404601F0A1FE632055
:103DF0002070DFE7314605F11400FEF721FC404654
:103E000001F096FE0020207000BFD3E770B5044695
:103E10000D4600260CB9602070BD0DB95F20FBE790
:103E200001F082FE0646D4E90310884204D33046EE
:103E300001F07EFE5E20EFE7606828606560206923
:103E4000401C2061304601F073FE0020E4E770B5AD
:103E500005460C4600260DB9602070BD0CB96120E6
:103E6000FBE701F061FE0646286820606868606034
:103E7000A868A060E868E06028692061304601F029
:103E800057FED4E90301401A60610020E5E770B5F0
:103E9000B4211248FEF71EFF104C00250DE0681CEF
:103EA00000EBC0000D4901EB800060603F202075F1
:103EB000002161752434681C85B2042DEFDB0020DD
:103EC00060603F2020750021617504480149086049
:103ED00070BD0000900000206D000020202900200F
:103EE0002DE9F04106460D464FF0000815B90020B7
:103EF000BDE8F0811EB9042028700020F8E7307872
:103F0000022803D0012028700020F1E701F00CFE08
:103F100080467468E08A00280FDD2169081D206151
:103F20000F68E08A401EE082A1682069884201D1C2
:103F3000606820610020287002E01F2028700027A0
:103F4000404601F0F5FD3846D2E72DE9F04106463E
:103F50000F464FF00008F7480078002802DD0020E7
:103F6000BDE8F08101F0E0FD8046F3480468006898
:103F700020B1F14800684068EF490860404601F010
:103F8000D7FD0CB301F0D0FD8046EC480568E5B1E3
:103F900000680068E9490860404601F0C9FD6E60AC
:103FA00006EB8700A860EE602E61AF820020E882F9
:103FB000022020700020208165603F20E0730021F6
:103FC00021742046FFF726F908E0DB4800686060AE
:103FD000D9480460404601F0ABFD00242046BFE70D
:103FE0002DE9F0470446894615464FF0000A15B9F9
:103FF0002046BDE8F0871CB9042028702046F8E769
:104000002078022803D0012028702046F1E7C94813
:104010000078002803DD0F2028702046E9E701F032
:1040200083FD8246A07A10B14FF0010801E04FF005
:104030000008B9F1000F03D0B9F1010F4DD123E011
:10404000B8F1000F19D13F20E07300212174666898
:10405000BA4800683060B948066000202070B64851
:104060000068606000202081B3480460504601F081
:104070005FFD00202870002705E0504601F058FD44
:104080004920287027462FE005E000230422194626
:104090002046FFF747F8A07A0028F6D13F20E073CA
:1040A000002121746668A54800683060A348066056
:1040B00000202070A04800686060002020819E4899
:1040C0000460504601F034FDB8F1010F01D1FEF754
:1040D0007EFB00202870002706E0504601F028FDF6
:1040E00007202870274600BF00BF384681E770B51B
:1040F000054600260DB9042070BD2878022801D09D
:104100000120F9E701F010FD06466C686068E06088
:10411000606820610020E082304601F009FD002047
:10412000EAE72DE9F0470646884615464FF00009B4
:1041300015B90020BDE8F0871EB9042028700020C2
:10414000F8E73078022803D0012028700020F1E73A
:1041500078480078002803DD022028700020E9E775
:1041600077480078002803DD0D2028700020E1E763
:1041700001F0DAFC81467468E08A002813DD2169C9
:10418000081D20610F68E08A401EE082A168206956
:10419000884201D160682061484601F0C9FC0020D6
:1041A00028703846C6E76748006890F8300040F04D
:1041B00004006449096881F83000002061490968F9
:1041C00081F831005F480068A0F82E803046FEF785
:1041D000E9FF484601F0ACFCFEF7F9FA01F0A4FC57
:1041E00081465848006890F8310020B101280DD070
:1041F00002280AD105E053480068476A0020287069
:104200000DE000270E20287009E000BF31464D4820
:104210000068FEF772FF00270A20287000BF00BF69
:1042200000204849096881F830004649096881F84A
:10423000310044490968C861424909680862414936
:1042400009684862484601F073FC384672E72DE978
:10425000F04105460F4614464FF0000814B90020FF
:10426000BDE8F0811DB9042020700020F8E728780F
:10427000022803D0012020700020F1E701F054FC57
:104280008046A87A20B300267FB1012F0CD107E029
:104290000223042200212846FEF744FF701CC6B208
:1042A000A87A0028F4D109E000BF022304220021EB
:1042B0002846FEF737FF701CC6B200BF00BF40465D
:1042C00001F036FCFEF783FA0E2020703046C7E777
:1042D000404601F02DFC0020207000BFC0E72DE912
:1042E000F04105460E46002715B90420BDE8F081CF
:1042F0002878022801D00120F8E701F015FC0746D4
:10430000A87A60B10023042231462846FEF70AFF4E
:10431000384601F00DFCFEF75AFA0020E6E76C681B
:10432000E08AA18A88420FDB384601F001FC1E209A
:10433000DCE700006D000020580000209400002001
:104340006E0000207C000020E168081DE0600E6027
:10435000E08A401CE082D4E90210884201D1606802
:10436000E060384601F0E4FB0020BFE72DE9F041B2
:1043700005460E46002715B90420BDE8F0812878CF
:10438000022801D00120F8E701F0CEFB0746A87A09
:1043900060B10023042231462846FEF7C3FE3846AA
:1043A00001F0C6FBFEF713FA0020E6E76C68E08A2E
:1043B000A18A884204DB384601F0BAFB1E20DCE704
:1043C00061682069884201D1A06820612069001FCE
:1043D000206120690660E08A401CE082384601F0D6
:1043E000A7FB0020C9E72DE9F04105460F46164618
:1043F0004FF0000815B90420BDE8F08128780228A4
:1044000001D00120F8E701F08FFB8046A87AE8B1DF
:1044100006F0010050B105E0002304223946284689
:10442000FEF780FEA87A0028F6D105E000230422DA
:1044300039462846FEF776FE404601F079FB06F045
:10444000040008B9FEF7C3F90020D5E76C68E08ADC
:10445000A18A884204DB404601F06AFB1E20CBE7BC
:1044600006F0020058B161682069884201D1A06855
:1044700020612069001F20612069076009E0E16870
:10448000081DE0600F60D4E90210884201D1606825
:10449000E060E08A401CE082404601F049FB0020D9
:1044A000AAE72DE9F04705460C464FF0000A15B97A
:1044B0000420BDE8F0870CB90920FAE72878022823
:1044C00001D00120F5E701F02FFB8246A87A207386
:1044D00005F10B0804F10809002705E018F8010BA5
:1044E00009F8010B781CC7B2042FF7DB6E68F08A5D
:1044F000002803DD30690068206001E000202060B2
:10450000F08AA080B08AE080504601F011FB0020C4
:10451000CFE770B560210A48FEF7DCFB084C04F1D8
:104520001806002504E0266018341836681C85B289
:10453000032DF8DB0020206001480249086070BDAF
:10454000D42900209400002070B5044600260CB940
:10455000002070BD2078032801D00020F9E701F089
:10456000E3FA06462589002D02DD2089401E2081C0
:10457000304601F0DDFA2846EBE770B50546002627
:10458000F1480078002801DD002070BD01F0CCFA70
:104590000646EE480468006820B1EC4800684068B0
:1045A000EA490860304601F0C3FA5CB1032020708C
:1045B0002581002060603F20E073002121742046A7
:1045C000FEF728FE2046E0E72DE9F047044688463E
:1045D00015464FF0000915B92046BDE8F0871CB913
:1045E000042028702046F8E72078032803D0012013
:1045F00028702046F1E7D4480078002803DD0F201A
:1046000028702046E9E701F08FFA8146A07A08B1C8
:10461000012700E00027B8F1000F03D0B8F1010F27
:104620003ED11BE09FB93F20E073002121740020A0
:104630002070C6480068606000202081C348046084
:10464000484601F075FA00202870002605E048462B
:1046500001F06EFA49202870264628E005E0002384
:10466000012219462046FEF75DFDA07A0028F6D10A
:104670003F20E0730021217400202070B3480068BF
:10468000606000202081B1480460484601F050FA83
:10469000012F01D1FEF79BF800202870002606E0CC
:1046A000484601F045FA07202870264600BF00BFA3
:1046B000304692E72DE9F04105460E4614460027A4
:1046C0000CB9BDE8F08115B904202070F9E728780D
:1046D000032802D001202070F3E79B4800780028CF
:1046E00002DD02202070ECE799480078002802DD06
:1046F0000D202070E5E701F017FA07462889002809
:1047000008DD2889401E2881384601F011FA002072
:104710002070D6E78F48006890F8300040F0010024
:104720008C49096881F8300000208A49096881F8BD
:10473000310088480068C6852846FEF733FD3846B4
:1047400001F0F6F9FEF743F801F0EEF9074681486B
:10475000006890F8310020B1012809D0022806D164
:1047600002E0002020700BE00E20207008E000BF67
:10477000294678480068FEF7C0FC0A20207000BF78
:1047800000BF00207349096881F830007149096849
:1047900081F831006F490968C8616E49096808628B
:1047A000384601F0C5F900BF8BE72DE9F041054619
:1047B0000F4614464FF0000814B90020BDE8F08100
:1047C0001DB9042020700020F8E72878032803D0C2
:1047D000012020700020F1E701F0A6F98046A87AB8
:1047E00020B300267FB1012F0CD107E00223012264
:1047F00000212846FEF796FC701CC6B2A87A002855
:10480000F4D109E000BF0223012200212846FEF76F
:1048100089FC701CC6B200BF00BF404601F088F999
:10482000FDF7D5FF0E2020703046C7E7404601F067
:104830007FF90020207000BFC0E770B50446002556
:104840000CB9042070BD2078032801D00120F9E7BD
:1048500001F06AF90546A07A60B1002301221946E9
:104860002046FEF75FFC284601F062F9FDF7AFFF36
:104870000020E7E720894FF6FF71884207D22089A0
:10488000401C2081284601F053F90020DAE7284631
:1048900001F04EF93220D5E72DE9F04704460D46E8
:1048A0004FF0000914B90420BDE8F0870DB90920C4
:1048B000FAE72078032801D00120F5E701F034F968
:1048C0008146A07AA87104F10B07AE1C4FF00008D6
:1048D00007E017F8010B06F8010B08F1010000F0E2
:1048E000FF08B8F1040FF4DB20892880484601F066
:1048F0001FF90020D8E72DE9F04104460E46154681
:1049000000270DB9BDE8F08114B904202870F9E73B
:104910002078032802D001202870F3E701F004F981
:104920000746002028702089002801DD268105E047
:10493000A07A08B9268101E049202870384601F0A4
:10494000F7F800BFDEE700006D00002058000020EF
:104950006E0000207C0000202DE9F04F85B08146DC
:10496000884600200090B9F11F0F06DBB9F1FF0F58
:1049700003D02A2005B0BDE8F08FB8F11F0F01DB8E
:104980002A20F7E701F0D0F80090FB4850F8280003
:1049900020B1009801F0CCF82820EBE7B9F1FF0F27
:1049A00003D1F648006890F83290F34850F8295047
:1049B00025B9009801F0BCF82920DBE7012D04D1CE
:1049C000009801F0B5F84320D4E74FEAE80708F073
:1049D000070003900120B84000F0FF0A012103986E
:1049E000814001F0FF0B0020E34941F8290008460F
:1049F00040F8285015F8346FA87802906878343D54
:104A00000190DF48815D01980140D1B1DC48805DB3
:104A100001998843DA4988550846805D28B9D94804
:104A2000007802998843D7490870D648007840EA50
:104A30000A00D4490870D248C05D40EA0B00D04952
:104A4000C855EC69D4B104F10B00805D019988432D
:104A500004F10B0188550846805D18B9A07A0299C7
:104A60008843A072A07A40EA0A00A07204F10B0009
:104A7000C05D40EA0B0004F10B01C855286A30B351
:104A8000286A0490049804681FE004F10B00805D1C
:104A90000199884304F10B0188550846805D18B9D7
:104AA000A07A02998843A072A07A40EA0A00A07214
:104AB00004F10B00C05D40EA0B0004F10B01C85586
:104AC0000498001D049004980468002CDDD185F83A
:104AD000328085F83470039885F8330085F836A065
:104AE00085F835B0009801F023F8A7480078012830
:104AF00001D1FDF76CFE00203CE72DE9FE4F064694
:104B00000F4690461C464FF000091F2C02DD2A205C
:104B1000BDE8FE8F01F008F881469C480078002827
:104B200004DD484601F004F83C20F1E7924850F8D3
:104B3000240060BB0120904941F82400484600F061
:104B4000F7FF002342463946304601F048F88246D6
:104B500000200090019003460246514602902046F4
:104B6000FEF770FB054635B98748007801280CD15F
:104B7000FDF72DFE09E000F0D7FF814600207E49B9
:104B800041F82400484600F0D3FF2846C0E74846D5
:104B900000F0CEFF2820BBE702F0010343B102F092
:104BA00002032BB102E0491E002308C00029FAD1FC
:104BB00070472DE9F04F85B081468A4693461C46E2
:104BC000DDE90F78129D002003901F2C03DD2A20C1
:104BD00005B0BDE8F08F00F0A7FF03906B480078A8
:104BE000002804DD039800F0A3FF3C20F0E76248B2
:104BF00050F8240088BB01205F4941F82400039845
:104C000000F096FF2A4641463846FFF7C5FF2B467F
:104C10005A465146484600F0E2FF04901198CDE90B
:104C2000008002953A4620460E9B0499FEF70AFB47
:104C3000064636B95448007801280CD1FDF7C7FD67
:104C400009E000F071FF039000204B4941F8240077
:104C5000039800F06DFF3046BAE7FFE7039800F0D5
:104C600067FF2820B4E72DE9F041054600274748B3
:104C70000078002802DD4020BDE8F0811F2D01D121
:104C80003E20F9E71F2D03DBFF2D01D02A20F3E79B
:104C900000F04AFF0746FF2D03D13848006890F81E
:104CA0003250354850F8254024B9384600F040FFCE
:104CB0004320E1E7012C04D1384600F039FF3D20C4
:104CC000DAE714F8340F2E49085C617888432178BC
:104CD0002B4A505414F834091146085C30B994F842
:104CE000361028480078884326490870E06918B1D2
:104CF0002046E169FEF701FA206A18B12046216AD0
:104D0000FDF73BFDA66A16B13046FEF700FC002019
:104D1000E08584F8300084F831001D480078FF28D1
:104D200004D21B480078401C19490870384600F02E
:104D3000FFFEFEF7E1F900F0F7FE074614480078A1
:104D4000002804DD12480078401E114908702046F2
:104D500000F042FF0F480078401E0E490870002006
:104D6000054941F82500A069C0B900206169886142
:104D700009496069086017E0282200207C000020B3
:104D80007200002071000020760000206D000020DD
:104D90006E0000207700002088000020D4E9050183
:104DA0004861D4E905108861FD4800686061FC48ED
:104DB00004603F2084F84C0000214D200155384606
:104DC00000F0B6FEF7480078012801D1FDF7FFFC9E
:104DD000002051E72DE9F041044600271F2C02D1A5
:104DE0003E20BDE8F0811F2C03DBFF2C01D02A20E0
:104DF000F7E7FF2C0BD100F097FE0746EA48006862
:104E000090F83760384600F093FE3046E9E700F04E
:104E10008BFE0746E54850F8245025B9384600F087
:104E200087FE4320DDE7012D04D1384600F080FEE7
:104E30003D20D6E73F2085F83700384600F078FE61
:104E40000020CEE72DE9F04705460F4614464FF007
:104E5000000814B90020BDE8F0871F2D05DDFF2DE7
:104E600003D02A2020700020F5E71FB90C20207005
:104E70000020F0E7CE480078002803DD11202070E4
:104E80000020E8E700F050FE8046FF2D03D1C64821
:104E9000006890F83250C54850F8256036B9404651
:104EA00000F046FE432020700020D4E7012E06D1FA
:104EB000404600F03DFE432020700020CBE706F185
:104EC0004C013846FDF7BCFB8146404600F030FE01
:104ED000002020704846BEE72DE9F04705460F4602
:104EE00014464FF000090CB9BDE8F0871F2D04DD12
:104EF000FF2D02D02A202070F6E717B90C20207071
:104F0000F2E7AB480078002802DD12202070EBE7C2
:104F100000F00AFE8146FF2D03D1A348006890F8F7
:104F20003250A24850F825602EB9484600F000FEE5
:104F300043202070D8E7012E05D1484600F0F8FD47
:104F400043202070D0E73846FDF7C7FB8046B8F114
:104F50000F0F05DD484600F0EBFD41202070C3E750
:104F6000394606F14C00FDF76BFB484600F0E0FDCA
:104F70000020207000BFB7E770B5054600261F2D42
:104F800001DB2A2070BD00F0CFFD0646874850F8AF
:104F9000254024B9304600F0CBFD4620F2E7012C35
:104FA00004D1304600F0C4FD4320EBE794F8300014
:104FB00000F0080060B314F8300F20F008002070F3
:104FC00014F83009F8B9E08DC8B93434A0787949BB
:104FD000097808437749087020787749085C617838
:104FE000084314F83419744A5054304600F0A0FDB8
:104FF0006C480078012809D1FDF7E9FB06E030464E
:1050000000F096FD02E0304600F092FD0020B9E786
:10501000304600F08DFD4420B4E72DE9F047064608
:105020000C464FF0000A1F2E04DDFF2E02D02A206E
:10503000BDE8F0870CB90920FAE700202060606025
:1050400000F072FD8246FF2E03D15748006890F8A9
:105050003260564850F8265025B9504600F068FD99
:105060004320E5E7012D04D1504600F061FD4320C7
:10507000DEE7287C00F0010020B9504600F058FD22
:105080004520D5E70027D5F80C90D5F80880504684
:1050900000F04EFD00E07F1C58F8041B0029FAD0F8
:1050A000B8002060A9EB0700800060600020BFE727
:1050B0002DE9F04105464FF000081F2D02D1472091
:1050C000BDE8F0811F2D03DBFF2D01D02A20F7E77B
:1050D00000F02AFD8046FF2D05D13348006890F886
:1050E0003250012608E03048006890F83200A842AB
:1050F00001D1012600E000262C4850F8254024B9B3
:10510000404600F015FD4820DAE7012C04D1404666
:1051100000F00EFD4320D3E794F834702648C05DBC
:1051200094F8351088432449C8550846C05D30B905
:1051300094F836101F48007888431E49087094F888
:10514000300040F0080084F83000404600F0F0FCE9
:10515000012E01D1FDF73BFB0020B1E72DE9F04125
:1051600004460E4600271F2C04DDFF2C02D02A2007
:10517000BDE8F0810EB90920FAE700F0D5FC07463A
:10518000FF2C03D10848006890F83240074850F8D7
:1051900024509DB9384600F0CBFC2920E8E70000F8
:1051A00080000020760000207C00002028220020C3
:1051B0006D0000207100002072000020012D04D13C
:1051C000384600F0B5FC4320D2E75C222946304641
:1051D000FEF72EF8384600F0ABFC0020C8E70000D0
:1051E00070B50546002674480078002800DD70BDC3
:1051F000002D23DD00F098FC06467048006890F80A
:1052000034406F48005D6D49096891F83510884356
:105210006B4908550846005D40B96848006890F839
:10522000361068480078884366490870634800680B
:10523000C585304600F07CFCFDF7C9FA00BFD6E713
:105240002DE9F04780460D4616461C465A48007820
:10525000002802DD5520BDE8F087B8F1000F04D129
:105260001DB916B90CB95420F5E73B2D01DD5120CD
:10527000F1E73B2E01DD5220EDE7B4F57A7F01DB4B
:105280005320E8E74FF47A7060434FF47A71B0FB33
:10529000F1F14FF4616008FB00F0C5EB051200EB83
:1052A0008200304400EB4002C2EBC01001EBC007AB
:1052B0004FEA1749BFB23846FFF792FF0BE04FF4B1
:1052C0000040FFF78DFF4FF40040FFF789FFA9F181
:1052D00001001FFA80F9B9F1000FF0DC0020BAE7F5
:1052E00070B5054600261F2D01DB2A2070BD00F099
:1052F0001BFC0646344850F8254024B9304600F0DF
:1053000017FC4320F2E7012C04D1304600F010FCDA
:105310004320EBE7E08D20B9304600F009FC502037
:10532000E4E70020E08594F8300000F0370040B159
:1053300014F8300F20F03700207001206070303CEE
:1053400002E0002084F8310094F8300000F00800FA
:10535000A8B93434A0781B49097808431949087062
:1053600020781749085C6178084314F83419144A06
:105370005054304600F0DCFBFDF729FA02E03046DD
:1053800000F0D6FB0020B1E770B5002500F0CCFBA3
:1053900005460E480468284600F0CAFB204670BD4A
:1053A00070B50446002500F0BFFB054607480460C1
:1053B000284600F0BDFB70BD6D0000207C00002081
:1053C0007200002071000020282200209800002098
:1053D00010B5FA480068FFF730FA10BDF8480068C9
:1053E00008B900207047F6480168F54AC86810609F
:1053F0000020C8600861F3480088401CF14A108012
:10540000F1480088401EF04A10800846EAE708B5D7
:105410006A460021E9480068FFF74CF908BD2DE90C
:10542000F05F06460F4690469B46DDE90B9515B9A1
:105430000020BDE8F09FB8F1010F08D0B8F1020FCD
:105440000BD11FB9832028700020F2E709E01EB9B4
:10545000822028700020ECE703E0842028700020E0
:10546000E7E700BFD9480078002803DD8B202870CB
:105470000020DEE7FFF7CBFFFFF7B0FF04462CB9B3
:10548000FFF7A6FF862028700020D2E7012084F8CD
:105490003100A661E76184F83080C4F804B00A984E
:1054A000A060B9F1000F18D04846FDF716F9824602
:1054B000BAF1100F05DA494604F12000FDF7C0F8F3
:1054C0000BE0232084F820000021212001558C20AE
:1054D0002870FFF77DFF2046ABE7FFF779FF00203C
:1054E00028702046A5E7002180F8311080F83010A0
:1054F000C1614161416081603F2180F8201000223C
:1055000021210A5400210161AD490968C160AC49FB
:105510000860AC490988491EAA4A1180AA4909882D
:10552000491CA94A1180704730B5057D05F0070474
:10553000A74D05EBC4031D68854205D1C1681960FC
:1055400039B100250D6104E00169C268CA6002B189
:105550001161012580F831500025C56005619D88E5
:105560006D1E9D8030BD70B505460C460CB90020FF
:1055700070BD1DB98A2020700020F9E728786428C2
:1055800003D0892020700020F2E79048007800289E
:1055900003DD8B2020700020EAE7FFF738FF95F845
:1055A0003100D8B101280FD002280ED003281BD11A
:1055B0002846FFF7B9FF2846FFF795FFFFF708FFDA
:1055C000002020700120D3E700BF2846FFF78BFFA3
:1055D000FFF7FEFE002020700120C9E7FFF7F8FE6C
:1055E000872020700020C3E7FFF7F2FE8D20207097
:1055F0000020BDE72DE9F04105460E46144614B9DA
:105600000020BDE8F0811EB9882020700020F8E756
:105610001DB98A2020700020F3E72878642803D081
:10562000892020700020ECE768480078002803DD1E
:10563000112020700020E4E7FFF7E9FE95F8310023
:1056400098B1012804D0022803D0032813D100BF49
:1056500000BF05F120013046FCF7F2FF0746FFF7D7
:10566000B7FE002020703846CBE7FFF7B1FE872059
:1056700020700020C5E7FFF7ABFE8D2020700020D2
:10568000BFE770B505460C460CB9002070BD1DB9CA
:105690008A2020700020F9E72878642803D0892028
:1056A00020700020F2E749480078002803DD8B20B5
:1056B00020700020EAE7FFF7AAFE95F8310070B3EA
:1056C00001280DD0022825D003282FD1414968692F
:1056D0000968461AFFF77CFE002020703046D5E7A7
:1056E00095F8300001280CD0022809D1A86908B922
:1056F000EE6900E0AE69FFF76BFE0020207006E067
:1057000000BFAE69FFF764FE0020207000BF00BF3D
:105710003046BBE7FFF75CFE00202070B6E7FFE7EE
:10572000FFF756FE872020700020AFE7FFF750FEFE
:105730008D2020700020A9E770B505460C460CB9F5
:10574000002070BD1DB98A2020700020F9E728785C
:10575000642803D0892020700020F2E71B480078DD
:10576000002803DD8B2020700020EAE7FFF74FFEC2
:1057700095F8316036B1012E05D0022E04D0032EEB
:1057800006D102E000BF00BF00BF0020207002E091
:105790008D20207000BF00BFFFF71AFE3046D0E713
:1057A00070B50B46032580F83150012B14D1094EFA
:1057B000C5693668354445611BE00000A40000203F
:1057C000AC0000209E0000209C0000206D00002006
:1057D000742F0020A000002085692DB9BC4EC5693A
:1057E00036683544456104E0B94E8569366835440C
:1057F0004561057D05F00704B64D05EBC4010D6854
:105800002DB908600025C56001258D8006E00A6875
:105810000860C26010618D886D1C8D800025056157
:1058200070BD70B505460C460CB9002070BD1DB9A1
:105830008A2020700020F9E72878642803D0892086
:1058400020700020F2E7A4480078002803DD8B20B8
:1058500020700020EAE7FFF7DAFD95F83100E8B1A3
:10586000012810D002280FD003281DD12846FFF7A9
:105870005BFE00212846FFF793FFFFF7A9FD0020FC
:1058800020700120D2E700BF00212846FFF788FFE3
:10589000FFF79EFD002020700120C7E7FFF798FD6D
:1058A000872020700020C1E7FFF792FD8D20207037
:1058B0000020BBE72DE9F04105460F4690461C4607
:1058C00014B90020BDE8F0811DB98A2020700020A5
:1058D000F8E72878642803D0892020700020F1E7B9
:1058E0007D480078002803DD8B2020700020E9E748
:1058F000FFF78DFD95F8310090B301282AD00228DA
:1059000027D0032833D12846FFF70EFE0020207051
:10591000B7B1032F02D0042F13D108E06E681EB177
:105920002846A968B04701E08F2020700CE06E681F
:105930001EB141462846B04701E08F20207003E0A9
:1059400002E08420207000BF00BFFFF741FD01206E
:10595000B8E700BFFFF73CFD8E2020700120B1E7C3
:10596000FFE7FFF735FD872020700020AAE7FFF74B
:105970002FFD8D2020700020A4E710B55748006847
:10598000FEF75BFF0446204610BD08B500BF6A461F
:10599000002152480068FEF78DFEFFF738FD4C48A5
:1059A0000068401C4A4908600846007800F0070873
:1059B000484800EBC8073C681AE0E668444960695B
:1059C0000968884213D1656815B12046A168A847C7
:1059D0002046FFF7A9FD94F83000022804D10121E8
:1059E0002046FFF7DDFE02E0022084F83100344655
:1059F000002CE2D1FFF7ECFCC9E700B587B003202B
:105A000000218022364BCDE90132CDE903104FF65B
:105A1000FD701D23334A00903348FFF7CAF806AAE9
:105A200032A11D20FFF758FA07B000BDF8B54FF4BA
:105A300050713248FDF74EF940212648FDF74AF9EA
:105A40002E4C04F1340600250FE064202070002065
:105A500084F83100E6603F2084F8200000212120F6
:105A6000015534343436681C85B20F2DEDDB6420CB
:105A70002070002084F83100E0603F2084F820008E
:105A80000021212001550020114908601C4908808F
:105A900010201C49088019481B4908600120FEF7A6
:105AA0006CFD1A4908600020FEF767FD0B4908608D
:105AB0006A4617A115480068FCF719FE6A4617A147
:105AC00006480068FCF713FEFFF797FFF8BD0000DB
:105AD000A0000020742F00206D000020A8000020EE
